:020000040800F2
:103000003818002005EF000885EE000889EE00085A
:103010008DEE000891EE000895EE0008000000001B
:1030200000000000000000000000000099EE000811
:103030009DEE000800000000A1EE000841EF00082E
:1030400045EF000849EF00084DEF0008E560000873
:1030500055EF000859EF0008E982000861EF000809
:1030600065EF00083D9A00086DEF000871EF000859
:1030700075EF000879EF00087DEF000881EF000888
:1030800085EF000889EF00088DEF000891EF000838
:10309000A5EE000899EF00089DEF0008A1EF0008D9
:1030A000A5EF0008A9EF0008ADEF0008B1EF000898
:1030B000B5EF0008B9EF0008BDEF0008C1EF000848
:1030C000C5EF0008C9EF0008CDEF0008D1EF0008F8
:1030D000D5EF000885A60008DDEF0008E1EF000845
:1030E0006581000859610008EDEF0008F1EF000864
:1030F000F5EF0008FF00FF01FF0203040506FF07CC
:1031000008090A0B0C0D0E0F1011121314151617C7
:10311000FF18FF19FF1A1B1C1D1E1F20212223242C
:1031200025262728292A2B2C2D2E2F30313233000B
:10313000000000000000F8F800000000000000009F
:10314000000000FFFF000000000000000000000081
:103150003F3F00000000000000000000000E0E00D5
:10316000000000000000000000F0F00000F0F0009F
:103170000000383838FFFF3838FFFF383800003893
:1031800038FFFF3838FFFF3838380000001E1F01B5
:10319000001E1F01000000000080E060E0800000D1
:1031A0000080600000007FC080C07F00C03C838042
:1031B00080000000010101F00E01FE030103FE008A
:1031C000000000070000000107060701000000C022
:1031D000F0783878F0E0000000000000CFFFF0B891
:1031E0001C0F0700000000FCFF830000031EF8FC1A
:1031F000FE0E00000003070E0E0E07070103070670
:10320000000000000000E0E00000000000000000FE
:10321000000000180700000000000000000000008F
:10322000000000000000000000000000000000009E
:103230000000000000000000000080700C02000090
:10324000000000000000F80700000000000000007F
:103250000000003FC000000000000000000000006F
:1032600000010E30400000000000000006087080E1
:1032700000000000000000000000000007FC00004B
:10328000000000000000000000C03F00000000003F
:1032900000000060100E01000000000000000000AF
:1032A0000000808000000000000000C0C0C0C0FF1F
:1032B000FFC0C0C0C000000001010101FFFF01010B
:1032C00001010000000000000000000000000000FC
:1032D00000000000000000000000000000000000EE
:1032E00000000000000000000000000000000000DE
:1032F00000000000000000000000000000000000CE
:1033000000000000000000000000000000000000BD
:103310000000000000C0C0C0C0C0C000000000002D
:103320000000010101010101000000000000000097
:10333000000000000000000000000000000000008D
:10334000000000000000000000000000000000007D
:103350000000000000000000C0C0000000000000ED
:10336000000000000001010000000000000000005B
:1033700000000080F010000000000000000000E0ED
:10338000FF0F000000000000000000F0FF0300003D
:10339000000000000000001C1F00000000000000F2
:1033A0000000C0C0E0E0E0E0E0C0C00000F8FFFFC7
:1033B00003010000000107FFFFF81FFFFFC08000AE
:1033C000000080C0FFFF1F00000303070707070777
:1033D0000303000000000000000080C0E0E00000E7
:1033E0000000001C0C0E0703FFFFFF0000000000A0
:1033F0000000000000FFFFFF0000000000000000D0
:1034000000000707070000000080C0C0E0E0E0E027
:10341000E0C0C08000060707010000000081E1FF56
:10342000FF3E00C0E0F0783C1E0F070301000007DC
:103430000707070707070707070707070080C0C038
:10344000E0E0E0E0E0C08000000607070100E0E007
:10345000E0F1FF9F8F0060E0E0C00000000080C34B
:10346000FFFF7E00010303070707070703010000B2
:10347000000000000000000080C0E0E000000080CC
:10348000C0E0F87C3F0FFFFFFF003C3E3F3F3B3971
:10349000383838FFFFFF380000000000000000004F
:1034A000070707000000E0E0E0E0E0E0E0E0E0E047
:1034B00000E0FFFFDF6070707070E0E0C00060E06F
:1034C000E0800000000000C1FFFF3F000103030790
:1034D0000707070703010000000080C0C0E0E0E02C
:1034E000E0E0C08000F8FEFF87C1E0E0E0E0E1C777
:1034F00087061FFFFFC38100000000C1FFFF7E00A1
:10350000000103070707070703030100E0E0E0E00D
:10351000E0E0E0E0E0E0E0E0E0000000000000C00B
:10352000F0FC1E07030000000080F8FF7F0700008A
:103530000000000000000707070000000000000076
:10354000000080C0E0E0E0E0E0C0800000000F9FED
:10355000BFF1E0E0E0F1BF9F0F007CFFFF83800040
:10356000000000C3FFFF7C000103030707070707F4
:10357000030301000080C0C0E0E0E0E0E0C08000A4
:10358000007EFFFFC30100000080C3FFFFFC60E17D
:10359000E3870707070783E1FF7F1F000103070792
:1035A00007070703030100000000000000008080FF
:1035B0000000000000000000000000030300000005
:1035C0000000000000000000C0C00000000000007B
:1035D00000000000000101000000000000000000E9
:1035E0000000E0E00000000000000000000000001B
:1035F00000000000000000000000000070F000006B
:103600000000000000000000000C030000000000AB
:10361000000000000000000000000000000000109A
:1036200010101010101010100000000008080808FA
:103630000808080808000000000000000000000062
:1036400000000000000080E0F0383838F0E0C000F2
:103650000000000303000080E0F07F1F0000000076
:103660000000003E3F0300000000000000000000DA
:103670000E0E0000000000000000000000808080AE
:103680000000000000000080F07E0F010F7EF0803F
:103690000000607C1F030303030303031F7C60001F
:1036A000000000000000000000000000000080801A
:1036B0008080808080000000000000FFFFC1C1C149
:1036C000C1E3FF1E000000007F7F606060606071EA
:1036D0003F1E00000000000000000000000000008D
:1036E00000000000808080808000000000F0FC0F5F
:1036F000030101010103070E0C00031F3C30606051
:10370000606070381C040000000000000000000031
:1037100000000000008080808080808080000000A9
:103720000000FFFF01010101010307FEF800007F17
:103730007F6060606060703C1F0700000000000058
:1037400000000000000000000080808080808080F9
:10375000808080000000FFFFC1C1C1C1C1C1C101A3
:103760000000007F7F60606060606060600000005B
:103770000000000000000000000000000000808049
:103780008080808080808000000000FFFFC1C1C178
:10379000C1C1C101000000007F7F000000000000E7
:1037A0000000000000000000000000000000000019
:1037B00000000000008080808000000000F0FC0E0F
:1037C00007030101818183878E88030F1C383060D5
:1037D00060616171313F1F000000000000000000C7
:1037E00000000000008080000000000000008080D9
:1037F0000000FFFFC0C0C0C0C0C0C0FFFF00007F0E
:103800007F000000000000007F7F0000000000003B
:1038100000000000000000000000000000808000A8
:1038200000000000000000000000FFFF000000009A
:10383000000000000000007F7F000000000000008A
:103840000000000000000000000000000000000078
:103850000000000080800000000000000000000068
:1038600000FFFF0000000000001C3C7060703F1F64
:103870000000000000000000000000000000000048
:103880000080800000000000008080000000FFFF3A
:10389000C0F0F8DC060301000000007F7F0000019B
:1038A000030F1C3860400000000000000000000012
:1038B0000000000000008080000000000000000008
:1038C000000000FFFF0000000000000000000000FA
:1038D0007F7F6060606060600000000000000000AA
:1038E0000000000000000000808080000000000058
:1038F0000000808080FFFF07FFF0000000F0FF075E
:10390000FFFF7F7F00000F7F707F0F00007F7F0031
:1039100000000000000000000000000000808000A7
:1039200000000000000080800000FFFF071E78E01C
:10393000800000FFFF00007F7F00000001030E38C1
:103940007F7F000000000000000000000000000079
:1039500000000000808080808000000000F0FC0EED
:10396000030301010103030EFCF0030F1C30706020
:10397000606070301C0F03000000000000000000B9
:103980000000000000808080808080808000000037
:103990000000FFFF8181818181C3FF7E0000007FE5
:1039A0007F01010101010100000000000000000092
:1039B0000000000000000000000000008080808007
:1039C0008000000000F0FC0E030301010103030E60
:1039D000FCF001070E18383030343C183E276100E7
:1039E0000000000000000000000000000080808057
:1039F00080808080800000000000FFFFC1C1C1C145
:103A0000C1E37F3E0000007F7F00000001070E7CC5
:103A100070400000000000000000000000000000F6
:103A20000000000080808080800000000000001EF8
:103A30003F6361C1C1C1C38F0C00000E1E387060AE
:103A4000606060313F0F00000000000000000000D7
:103A50000000000000000000000000000000000066
:103A6000000303030303FFFF03030303030000003A
:103A7000000000FFFF000000000000000000000048
:103A80000000000000000000008080000000000036
:103A9000000080800000FFFF00000000000000FF29
:103AA000FF00000F1F387060606060383F0F00003B
:103AB0000000000000000000000000008080000006
:103AC000000000000000008080010F7EF0800000F8
:103AD0000080F07E0F01000000031F7C607C1F034C
:103AE00000000000000000000000000000000000D6
:103AF00080000000000080000000000080037C8047
:103B000000807E017E8000807C0300001F700F001B
:103B100000001F700F000000000000000000000007
:103B20000000000080808000000000008080800095
:103B3000000001071EFCE0FC1E0701000000607889
:103B40001E0F0300030F1E786040000000000000FD
:103B500000000000000000008080800000000000E5
:103B600000000080800001070E3C70E0E0703C0E19
:103B700007010000000000007F7F0000000000003F
:103B80000000000000000000000000000000808035
:103B9000808080808080808000000001010181E1C0
:103BA000711D0F0301000060787C6F6361606060CD
:103BB0006060000000000000000000000000000045
:103BC00000000000000000000000000000000000F5
:103BD00000000000000000000000000000000000E5
:103BE0000000C0E0E0C000C0C0C000C0C0C000C055
:103BF000C0C000C0C0C00000F0F0F0F0F0F0000065
:103C000000000001010000000000000000000000B2
:103C10000000000000000000030303030303000092
:103C20000000000000000000000000000000000094
:103C30000000000000000000000000000000000084
:103C40000000000000000000000000000000000074
:103C50000000000000000000000000000000000064
:103C600000000000E0E06060606060E0C080000094
:103C7000E0E0E0C00000000000C0E0E0E000000084
:103C800000000000FFFF3030303030381F0F0000E0
:103C9000FFFF011FFEE000E0FE1F01FFFF0000002C
:103CA0000000000007070000000000000000000006
:103CB00007070000000706070000000707000000D4
:103CC00000000000000000000000000000000000F4
:103CD00000000000000000000000000000000000E4
:103CE00000000000000080E060E08000000000E0D4
:103CF000E0E0C00000000000C0E0E0E000000000E4
:103D000000000000C0FC7F6360637FFCC00000FF18
:103D1000FF011FFEE000E0FE1F01FFFF00000000AA
:103D20000000000607010000000000010706000770
:103D3000070000000706070000000707000000005A
:103D40000000000000000000000000000000F80873
:103D5000F80000000000000000000000000000006B
:103D60000000000000000000000000000000FFE074
:103D7000FF00000000000000000000000000000044
:103D800000000000000000000000000080C0FFFFF5
:103D9000FFC08000000000000000000000000000E4
:103DA0000000000000000000000000000F1F1F1FA7
:103DB0001F1F0F00000000000000000000000000B6
:103DC00000000000000000000000000000000000F3
:103DD00000000000000000000000000000000000E3
:103DE0000080C0C0606060E0C08000000000000093
:103DF0000000000000000000000000000000E0E003
:103E00007EFF81000000303031F3F100F8FC0E0637
:103E1000060EFCF800C8EC66663636FEFC00FFFFB6
:103E2000000103030606060603030100010307065B
:103E30000607030100030706060603070700070736
:103E40000000000000000000000000000000000072
:103E50000000000000000000000000000000000062
:103E600000000000000000E0F8FCFEFFFFFFFCF88F
:103E7000C000000000000000000000000000000082
:103E80000000000000F8FFFFFFFFFFFFFFFFFFFF44
:103E9000FFFEF0E0E0F0F8F8F0E0000000000000C5
:103EA00000000000070707070707070707070707BE
:103EB00007070707070707070707070000000000B5
:103EC0000000008080C080C0C080C0C0C0800000F2
:103ED00000000000000000000000000000000000E2
:103EE0000066FFFFFFFFFEFF7F7D13030301387CA9
:103EF0007C38D8DCFCE8DCF8F8F06000000000005A
:103F00000000073F3F7F7D30000000000000000000
:103F10000003070F0FDFFFFFFFFF0C000000000092
:103F20000000000000000000000000000000000091
:103F30000000000007070703030000000000000066
:103F40000000000000000000000000000000000071
:103F500080E0000000000000000000000000000001
:103F6000000000000000000000C0C080F0F8FCFF6E
:103F7000FFFFFEF8FCC4C2C06000000000000000AB
:103F800000000000000000040C1F3F7FFFFFFFFF48
:103F9000FFFFFFFFFFFFFFFF3F07000000000000E3
:103FA00000000000000000000000000006070707F6
:103FB00007070707070705000000000000000000D2
:103FC00000000000000000000000000000000000F1
:103FD00000000000000000000000000000000000E1
:103FE00000000000000000000000000000000000D1
:103FF0000000000000000000E0E000000000000001
:10400000FEFE0C0606FEF80C0606FEFC0000FEFE98
:104010000C06060EFCF80000FFFF0C060606FEFC70
:1040200007070000000707000000070700007F7F68
:10403000030606070301000007070000000007074A
:104040000000000000000000000000000000000070
:104050000000000000000000000000000000000060
:10406000E0E0000000000000000000000000000090
:10407000000000E0E0000000000000000000000080
:10408000FFFF3078EC8E060200FEFE0C06060EFCEA
:10409000F80000FFFF0C060606FEFC000000000012
:1040A0000707000001070604007F7F0306060703D9
:1040B00001000007070000000007070000000000E3
:1040C00000000000000000000000000000000000F0
:1040D00000008080808080808080C0000000000020
:1040E00000000000000000000000000000E0F8DE1A
:1040F00086C7E3F3330303830301000000000000DD
:104100000000000000000000000000000000019915
:10411000FDFFFF3F07070301000000000000000053
:10412000000000000000000000000000040607037B
:10413000030100000000000000000000000000007B
:10414000000000000000000000000000000000006F
:10415000000000000000000000000000000000005F
:1041600000000000000000000000808040203011AE
:104170000905070381C0603030180C000000000002
:104180000000000000080C04020181C0602030180B
:104190000C06020301000000000000000000000007
:1041A0000000000000080C060203010000000000EF
:1041B00000000000000000000000000000000000FF
:1041C00000000000000000000000000000000000EF
:1041D00000000000000000000000000000000000DF
:1041E00000E04020E04020E00000FC602020C08093
:1041F000000040602020C000000000E040202000BF
:10420000000F00000F00000F00000F040808070354
:104210000000070909050F080000000F000000005A
:10422000000000000000000000000000000000008E
:10423000000000000000000000000000000000007E
:1042400000008040404080000000000000000000AE
:10425000000000000000000000000000000000005E
:10426000000003040404030000E0F81C0C06060729
:1042700003070706060C3C300000000000000000A9
:1042800000000000000000001FFFF180000000009F
:10429000000000000080E0E02000000000000000BE
:1042A00000000000000000000000010307060606F1
:1042B0000C0C0606070301000000000000000000CF
:1042C00000000000000000000000000000000000EE
:1042D00000000000000000000000000000000000DE
:1042E00000000000000000C040404040404040400E
:1042F00040404040404040404040404040C0F0408E
:1043000040404040404040404040404040404040AD
:1043100040404040C00000000000000000000000DD
:10432000000000000000000000000000000000008D
:10433000000000000000000000000000000000007D
:10434000000000000000000000000000000000006D
:10435000000000000000000000000000000000005D
:1043600000000000000000FF00000000000000004E
:104370000000000000000000000000C0F80F000076
:10438000000000000000000000000000000000002D
:104390000000000007040404FC000000000000000E
:1043A000000000000000000000000000000000000D
:1043B00000000000000000000000000000000000FD
:1043C00000000000000000000000000000000000ED
:1043D00000000000000000000000000000000000DD
:1043E00000000000000000FF0000000000000000CE
:1043F000000000000000000000C0FC0F00000000F2
:1044000000000000000000000000000000000000AC
:1044100000000000C04040407F000000000000009D
:10442000000000000000000000000000000000008C
:10443000000000000000000000000000000000007C
:10444000000000000000000000000000000000006C
:10445000000000000000000000000000000000005C
:104460000000000000000007040404040404040425
:1044700004040404040404041C0F040404040404D9
:1044800004040404040404040404040404040404EC
:104490000404040407000000000000000000000005
:1044A000000000000000000000000000000000000C
:1044B00000000000000000000000000000000000FC
:1044C00000000000000000000000000000000000EC
:1044D00000000000000000000000000000000000DC
:1044E00000000000000000C040404040404040400C
:1044F00040404040404040404040404040404040BC
:1045000040404040404040404040404040404040AB
:1045100040404040C00000000000000000000000DB
:10452000000000000000000000000000000000008B
:10453000000000000000000000000000000000007B
:10454000000000000000000000000000000000006B
:10455000000000000000000000000000000000005B
:1045600000000000000000FF0000FEFEFEFEFEFE58
:10457000FEFEFEFEFEFE0000000000000000000047
:10458000000000000000000000000000000000002B
:104590000000000007040404FC000000000000000C
:1045A000000000000000000000000000000000000B
:1045B00000000000000000000000000000000000FB
:1045C00000000000000000000000000000000000EB
:1045D00000000000000000000000000000000000DB
:1045E00000000000000000FF0000FFFFFFFFFFFFD2
:1045F000FFFFFFFFFFFF00000000000000000000C1
:1046000000000000000000000000000000000000AA
:1046100000000000C04040407F000000000000009B
:10462000000000000000000000000000000000008A
:10463000000000000000000000000000000000007A
:10464000000000000000000000000000000000006A
:10465000000000000000000000000000000000005A
:104660000000000000000007040404040404040423
:1046700004040404040404040404040404040404FA
:1046800004040404040404040404040404040404EA
:104690000404040407000000000000000000000003
:1046A000000000000000000000000000000000000A
:1046B00000000000000000000000000000000000FA
:1046C00000000000000000000000000000000000EA
:1046D00000000000000000000000000000000000DA
:1046E00000000000000000C040404040404040400A
:1046F00040404040404040404040404040404040BA
:1047000040404040404040404040404040404040A9
:1047100040404040C00000000000000000000000D9
:104720000000000000000000000000000000000089
:104730000000000000000000000000000000000079
:104740000000000000000000000000000000000069
:104750000000000000000000000000000000000059
:1047600000000000000000FF0000FEFEFEFEFEFE56
:10477000FEFEFEFEFEFE0000FEFEFEFEFEFEFEFE55
:10478000FEFEFEFE00000000000000000000000031
:104790000000000007040404FC000000000000000A
:1047A0000000000000000000000000000000000009
:1047B00000000000000000000000000000000000F9
:1047C00000000000000000000000000000000000E9
:1047D00000000000000000000000000000000000D9
:1047E00000000000000000FF0000FFFFFFFFFFFFD0
:1047F000FFFFFFFFFFFF0000FFFFFFFFFFFFFFFFC7
:10480000FFFFFFFF000000000000000000000000AC
:1048100000000000C04040407F0000000000000099
:104820000000000000000000000000000000000088
:104830000000000000000000000000000000000078
:104840000000000000000000000000000000000068
:104850000000000000000000000000000000000058
:104860000000000000000007040404040404040421
:1048700004040404040404040404040404040404F8
:1048800004040404040404040404040404040404E8
:104890000404040407000000000000000000000001
:1048A0000000000000000000000000000000000008
:1048B00000000000000000000000000000000000F8
:1048C00000000000000000000000000000000000E8
:1048D00000000000000000000000000000000000D8
:1048E00000000000000000C0404040404040404008
:1048F00040404040404040404040404040404040B8
:1049000040404040404040404040404040404040A7
:1049100040404040C00000000000000000000000D7
:104920000000000000000000000000000000000087
:104930000000000000000000000000000000000077
:104940000000000000000000000000000000000067
:104950000000000000000000000000000000000057
:1049600000000000000000FF0000FEFEFEFEFEFE54
:10497000FEFEFEFEFEFE0000FEFEFEFEFEFEFEFE53
:10498000FEFEFEFE0000FEFEFEFEFEFEFEFEFEFE43
:10499000FE00000007040404FC000000000000000A
:1049A0000000000000000000000000000000000007
:1049B00000000000000000000000000000000000F7
:1049C00000000000000000000000000000000000E7
:1049D00000000000000000000000000000000000D7
:1049E00000000000000000FF0000FFFFFFFFFFFFCE
:1049F000FFFFFFFFFFFF0000FFFFFFFFFFFFFFFFC5
:104A0000FFFFFFFF0000FFFFFFFFFFFFFFFFFFFFB4
:104A1000FF000000C04040407F0000000000000098
:104A20000000000000000000000000000000000086
:104A30000000000000000000000000000000000076
:104A40000000000000000000000000000000000066
:104A50000000000000000000000000000000000056
:104A6000000000000000000704040404040404041F
:104A700004040404040404040404040404040404F6
:104A800004040404040404040404040404040404E6
:104A900004040404070000000000000000000000FF
:104AA0000000000000000000000000000000000006
:104AB00000000000000000000000000000000000F6
:104AC00000000000000000000000000000000000E6
:104AD00000000000000000000000000000000000D6
:104AE00000000000000000C0404040404040404006
:104AF00040404040404040404040404040404040B6
:104B000040404040404040404040404040404040A5
:104B100040404040C00000000000000000000000D5
:104B20000000000000000000000000000000000085
:104B30000000000000000000000000000000000075
:104B40000000000000000000000000000000000065
:104B50000000000000000000000000000000000055
:104B600000000000000000FF000000000000000046
:104B70000000000000000000000000000000000035
:104B80000000000000000000000000000000000025
:104B90000000000007040404FC0000000000000006
:104BA0000000000000000000000000000000000005
:104BB00000000000000000000000000000000000F5
:104BC00000000000000000000000000000000000E5
:104BD00000000000000000000000000000000000D5
:104BE00000000000000000FF0000000000000000C6
:104BF00000000000000000000000000000000000B5
:104C000000000000000000000000000000000000A4
:104C100000000000C04040407F0000000000000095
:104C20000000000000000000000000000000000084
:104C30000000000000000000000000000000000074
:104C40000000000000000000000000000000000064
:104C50000000000000000000000000000000000054
:104C6000000000000000000704040404040404041D
:104C700004040404040404040404040404040404F4
:104C800004040404040404040404040404040404E4
:104C900004040404070000000000000000000000FD
:104CA0000000000000000000000000000000000004
:104CB00000000000000000000000000000000000F4
:104CC000BFF34F8FDFF8E408DFF8E428016801F450
:104CD000E06111430160BFF34F8FFEE738B572B654
:104CE000DFF8D048DFF8D05800F0B9FC41F6027088
:104CF00000F0EBFC284600F0C5FC2146284600F0F9
:104D0000D0FC00F0B8FC2868A042EDD162B600F0FB
:104D100023FDBDE83140D3E710B5DFF8A04800F02F
:104D200063FC41F6027000F0D0FCDFF8940800F05C
:104D300071FCA16ADFF88C0800F089FC00F063FCCC
:104D4000DFF88008A16A00688842E8D110BD38B554
:104D5000DFF87448DFF86458012020742C6204F5F1
:104D600022702060C820A080204600F0DBFE0120D9
:104D700084F8280004F13000A0614FF41670A0837D
:104D800004F11800686200F0CDFE0120A873002035
:104D9000E87331BDF8B5DFF824680446306A0D4683
:104DA000002818BF002C0AD04DB10027316A3819ED
:104DB00000F0D1FE18B97F1C3FB2AF42F6DBF1BD67
:104DC0002DE9F04182B005465520DFF8F0778DF8E7
:104DD00000008846796A002400A800F0BCFEAA20E2
:104DE0008DF8000000A8796A00F0B5FE8DF800404B
:104DF000002606E0701900F0AEFE705D0419A4B242
:104E0000761C796A4645F5DB8DF8004000A800F075
:104E1000A2FEBDE8F381DFF8A427C02818BFC1288F
:104E200018D0CA2818BFCE2814D0D22818BFE0281E
:104E300010D0EF2818BFB0280CD0102818BF1128A8
:104E400008D0122818BF142804D015281CBF162813
:104E5000172803D10221517405211BE0C22818BF75
:104E6000C32814D0C42818BFC52810D0C62818BF1E
:104E7000C7280CD0C82818BFC92808D0CB2818BF0D
:104E8000CC2804D0D3281CBFD928132804D1002152
:104E900051740421D1737047AA280CBF012000204F
:104EA000D0730020704700009EB5DFF81037002A4D
:104EB00012BF0022DA7C521CDA744FEA004E9C6A60
:104EC00093F91320DFF80477132900F09A80C229A0
:104ED00017D0C32934D0C42951D0C52956D0C629EA
:104EE00056D0C72900F07080C82900F07280C92907
:104EF00000F08180CB2900F08080CC2900F07F80F9
:104F00000AE0062A1AD8DFE802F0171513110F0677
:104F10000400987086E0587093F90F009C62052891
:104F200040F08480D0B29EBD1870F5E71871F3E7A9
:104F30009871F1E75871EFE7D871EDE7062A46E07E
:104F40000102DFF88C76072A17D8DFE802F0141286
:104F5000100E0C0A080438880843388062E0388054
:104F6000DAE7F871D8E77871D6E73871D4E778884E
:104F700008437880D0E7B871CEE7072A27E01AB156
:104F8000012AC9D1B8764DE07876C5E7387149E095
:104F9000082A17D8DFE802F0051412100E0C0A08D0
:104FA0000600DEE7F8733DE0B873B5E77873B3E762
:104FB0003873B1E7F872AFE7B872ADE77872ABE774
:104FC0003872A9E7082A02E0D119092A0874A3D186
:104FD00028E0396852B1022A06D009D3032A9BD1AE
:104FE00041EA006038601DE04EEA0100386093E756
:104FF00041EA0020FAE7587314E0B87112E07871C2
:1050000010E06AB1022A05D007D3032A04D144EA8A
:10501000006407E04EEA04047EE744EA00247BE7EC
:10502000044679E70520D8739C627BE7FF209EBD8C
:1050300080B502218DF80010F02800A91CBFFE28C1
:10504000FF204870022100A8FFF7BAFE01BD00B59D
:1050500095B000A800F000FD07A800F0E7FC2720AD
:105060008DF82C0014210BA841700DF12D019DF835
:1050700006204A70009A8A70120ACA70009A120CAE
:105080000A71009A120E4A719DF805208A719DF8E6
:105090000420CA719DF81A200A729DF819204A72DC
:1050A0009DF824208A72BDF81E20CA72120A0A7363
:1050B0009DF820204A739DF821208A739DF82220B4
:1050C000CA739DF823200A7400224A74BDF81C207C
:1050D0008A74120ACA749DF810200A759DF811206E
:1050E0004A759DF812208A759DF81320CA759DF89F
:1050F00014200A769DF815204A769DF816208A76A7
:105100009DF81720CA769DF818200A779DF8072089
:105110004A779DF808208A779DF80920CA779DF87C
:105120000A1080F821100DF14D009DF80B10417010
:105130009DF80C1081709DF80D10C1709DF80E1037
:1051400001719DF80F1041710BA82721FFF738FE60
:1051500015B000BD10B590B000F088FD040006D178
:10516000F020FFF765FF00F02AF8002008E000F0CB
:1051700021F839208DF80000C32000F027F8012025
:1051800010B010BD10B590B000F0C8FD040006D1FD
:10519000F020FFF74DFF00F012F8002008E000F0CB
:1051A00009F839208DF80000C42000F00FF8012024
:1051B00010B010BD3922002100A800F00DBEDFF8AC
:1051C000FC030021C181006A00F00BBD8DF80100D5
:1051D00020788DF80200002006E06168415C00AA9A
:1051E0008218401CD170C0B221788842F5DB392189
:1051F00000A8E5E52DE9F04104468AB0DFF8CC03CC
:10520000DFF8B853102C62D0112C00F0CA80122C99
:1052100000F0CE80132C00F0CE80142C00F0CF8054
:10522000152C00F0CF80162C00F0D380172C00F046
:10523000DF80C02C24D0C12C38D0C22C41D0C32C4C
:1052400046D0C42C4AD0C52C50D0C62C55D0C72C23
:105250005AD0C82C5FD0C92C65D0CA2C61D0CB2CB9
:1052600062D0CC2C67D0CE2C6CD0D22C00F07680C3
:10527000D92C58D0E02C00F08F80EF2C53D0E3E0F5
:1052800000F062FA08218DF81010A02204A94A70DB
:105290000871D04A12788A700022CA70020A4A71D4
:1052A000020C000EC8718A71082173E00D208DF880
:1052B00018000D22A1208DF819000DF11A00C64921
:1052C00091E02968686800F0CEFD0128D7D174E02C
:1052D000BF4800F044FB0128D1D16EE0B0F81900BE
:1052E000009000F05EFA0128C9D166E090F9040050
:1052F00000F082FA0128C2D15FE00921C01D00F050
:105300003AFA0128BBD158E00921103000F08BFA9D
:105310000128B4D151E0006800F0E1FA0128AED1D3
:105320004BE0FFF7DBFC92E090F9060000F0ABFAEF
:105330000128A4D141E090F9050000F0B7FA012856
:105340009DD13AE003208DF8000000AEB9207070C6
:1053500000F0D1FFB070032100A872E008208DF8A2
:10536000100004AEB220707001A800F03FFD9DF85F
:105370000B00B07008219DF80900F0709DF80A003C
:1053800030719DF8040070719DF80500B0719DF8B2
:105390000600F07104A854E001F0C0F800F05BFCD6
:1053A0000BE001F09DF801F09EFA00F033FC04E000
:1053B0000120A87401E0FFF7AFFCF02045E0FFF703
:1053C00046FE44E072B600F0C7F962B6FFF778FC1B
:1053D0003DE00D208DF818000D2216208DF81900E3
:1053E0000DF11A007D4901F09BFA0D2106A828E075
:1053F00000F02BFC064600F02BFC804601F078F80C
:1054000009218DF8041001AF1721797006F00F0102
:10541000B970310901F00F01F97008F00F0139710D
:105420004FEA181101F00F01797100F00F01000926
:10543000B97100F00F00F87101F05DF838720921C0
:1054400001A8FFF7BDFC02E0FE20FFF7F1FDC92C2B
:1054500002D00020E88107E00020E8730220A87352
:1054600000F0DCFB01F056F80AB0BDE8F081000066
:1054700038B500208DF800000024504D01E00020D8
:10548000E88100A8296A00F08AFB00284BD1E88A4D
:105490009DF8001095F90F309DF800200918052B94
:1054A000EFD8DFE803F0040D191F2635E9E7AA2A33
:1054B000E7D10120E87305F1180000F0E5FDE0E711
:1054C000552A06D10020E8820220E87301202875C1
:1054D000D7E70020E873D4E79DF800002874E9823C
:1054E0000320F7E79DF80000E982FFF794FC0446EB
:1054F000C7E7E98295F914209DF800002146FFF7DF
:10550000D3FCFF280CBF0020C01C68740020DEE71D
:10551000C0B2824202BF287C697C8842AFD120465B
:10552000FFF768FEADE731BD10B5244C94F90E00CD
:1055300018B102280CD003D310BDBDE8104097E786
:10554000D4E90601C82200F0A7FD012814D147E0E4
:10555000207B617B50EA010203D1FFF7FBFD58B9C4
:1055600006E0012908BF002806D1FFF70BFE18B995
:105570000020E081FF20607310BD70B50446002557
:105580000E4E716A281900F00AFB10F1020F05D0C7
:105590006D1CEDB23E2DF4DB707D10B100207075F6
:1055A00000E001203073284670BD00000CED00E0E3
:1055B0000400FA0511629E5E980F0808300300206F
:1055C000002F0008FC2F00088C0400203C13002052
:1055D000AC1300203CEE000840EE000850EE00083E
:1055E0000020E08110BD000010B5DFF80C412068FC
:1055F000800707D500F033F8DFF80001E060DFF83E
:105600000001E06010BDDFF8F000016841F0020128
:105610000160704738B5054600F054F8042815D1EC
:10562000DFF8D440206840F400702060206840F02B
:10563000080020600020286000F044F8216821F074
:1056400008012160216821F40071216032BD38B564
:1056500000F036F8042801D125602CE032BDDFF8D7
:1056600098000168C90705D5DFF898108160DFF858
:10567000981081607047DFF88000016841F00101F7
:105680000160704710B5044600F01CF8042804BF00
:105690000021216010BD1848016821F4807101606B
:1056A000704738B500F00CF8042803D1FFF7F3FF7A
:1056B000256000E032BD4FF40040BDE8324027E0F5
:1056C00004460D464FF4004022E010490860704740
:1056D0000E490A680420D20701D5012070470A68E4
:1056E000D20501D502207047096811F4F05F18BF98
:1056F0000320704700000000043C0240BFAE9D8CB8
:1057000016151413EFCDAB8905040302183C0240B3
:1057100010B582B0044604208DF80000FFF7D8FFD2
:105720008DF8000005E04CB1FFF7D2FF8DF80000C6
:10573000641E9DF900000128F5D014B905208DF8EC
:1057400000009DF9000016BDDFF870030068704787
:10575000DFF86C03FF2102E0DFF864030021017031
:105760000122DFF8601301F0E1B8DFF85803007898
:1057700000B1FF20704738B50022DFF84C3301E05C
:10578000521CD2B28A4204DA145C9D5CAC42F7D05F
:10579000FF22FF2A03D10A46194601F0C7F801206B
:1057A00032BD01B5DFF824039DF9001090F9012006
:1057B000914202BF9DF801100078814214D09DF9FA
:1057C00000000C30192803D29DF801003C2801DBB1
:1057D000002002BD0122BD490DF1010001F0A6F833
:1057E0000122BB4900F073F8012002BDB7494A7895
:1057F000027009784170704701B5B649097888424E
:1058000009D0012818BF002801D0002002BD0122C4
:10581000B04900F05CF8012002BDAE490978017082
:1058200070470921AC4870B504460D460020AB4EC8
:1058300001E0401CC0B2A84204DA015D325C914232
:10584000F7D0FF20FF28294604D0304601F0C8F8E1
:1058500020B10EE0204601F0C3F828B909219E4886
:1058600001F0BEF8002070BD2A463146204601F006
:105870005DF8012070BD0021984A525C0A54491C11
:105880000929F9DB704701B595490978884209D0A3
:10589000012818BF002801D0002002BD0122904934
:1058A00000F015F8012002BD8D4914E001B58D49C5
:1058B0000978884209D0012818BF002801D00020AB
:1058C00002BD0122874900F002F8012002BD00A8B4
:1058D00001F02CB8834991F900100170704701B5AF
:1058E00081490968884209D08049884200D208B9B4
:1058F000002002BD04227C49FFF7E9FF012002BD20
:1059000010B504460922754904F1100001F00EF8A3
:1059100001227349A01D01F009F8042272492046B2
:1059200001F004F809226849E01D00F0FFFF0122A0
:105930006C49601D00F0FAFF01226649201D00F04D
:10594000F5FF0122624904F1190000F0EFFF012286
:105950005E4904F11A0000F0E9FF012010BD10B506
:1059600082B0044600200090614994F906000B784B
:10597000984202BF227A4B789A4215D1E2798B780D
:105980009A4202BF2288B1F803309A420CD1628851
:10599000B1F805309A4202BF2279CB799A4202BF10
:1059A0006279097A8A423FD0032805D0022818BFBD
:1059B000012807D0002016BDE07901F0A1FB4D4A77
:1059C0004D4B04E0E07901F09BFB4C4A4C4B01F05D
:1059D000A5FB01F075FC009004224A49FFF777FF10
:1059E00001224349A01D00F0A1FF0122464904F114
:1059F000080000F09BFF01224449E01D00F096FFE3
:105A000002224349204600F091FF02224149A01C96
:105A100000F08CFF01224049201D00F087FF012289
:105A20003E49601D00F082FF012016BD30494A78D2
:105A300002728A78C271B1F803200280B1F80520A1
:105A40004280CA7902710A7A4271D1F82520C26077
:105A500091F90010817170472249D1F8022002604B
:105A6000CA7982760A7A427691F90020427191F9D8
:105A70000120827191F9061001710021174A525CD0
:105A80000B18491C09291A74F8D300210E4A525CDC
:105A90000B18491C0929DA71F8D3704710B5094869
:105AA000007840B91E4C2046FFF759FF04F1100062
:105AB000BDE8104024E710BD00000000FC2F0008E6
:105AC0002B140020290008081D00080810000808F1
:105AD000110008080F00080824030020120008081D
:105AE0000A000808090008080B000808A086010041
:105AF000000008083BDF4F8D976EDA3F8FC2F52814
:105B00005C8FDA3F25000808010008080200080839
:105B1000030008080500080807000808080008082E
:105B200004030020017C00291CBF0268002A01D167
:105B3000002070470322114203D00A1D01F0030127
:105B4000511A41740021418201688160C160016085
:105B5000012101757047F8B503460C0003D094F994
:105B60001400012802D06FF00200F2BD627CE068F0
:105B70002168A788151856197F18BE4228BF0D4600
:105B8000A1688D4202D14FF0FF30F2BD194600F0FE
:105B9000C7FEE560608A401C60820020F2BD10B53F
:105BA0000C0003D094F91410012900D02FE0A16853
:105BB000E268914202D16FF0010010BD227C00F03A
:105BC000AFFE607CA1682268A388411840189B182A
:105BD000984228BF1146A160608A401E6082002062
:105BE00010BD18B190F91410012902D06FF0020015
:105BF00070478168C268914202D16FF0010070471E
:105C00000168C160816000214182002070476FF00F
:105C1000020010BD4C216A4801F09ABB10B5684CD7
:105C20004C21204601F094FB00F081FC208000F024
:105C300084FCA08000F07EFC608000F081FCE080AD
:105C400020882081A088608110BD5D480088704751
:105C50005B484088704710B5594C608800F064FC80
:105C60002046BDE810404C2101F072BB38B5544CC1
:105C700061882089884245D004F1440504F10C0272
:105C80006A60024609D28A1A362AACBF3621091A3E
:105C9000297004F10C012A7808E0C2F5E042362AA6
:105CA0000ADB36212970362204F10C0101F0DCFCFC
:105CB00020892978081822E08A18362A12DB362132
:105CC00000F024F8208946F6CA71421A6968081A59
:105CD00000F5E04192B2002001F0C6FC2089C0F539
:105CE000E0400CE0091A00F011F868682189628828
:105CF000401A00F5E041002001F0B6FC60882081E8
:105D0000284632BD20882081002032BD2970C0F590
:105D1000E04292B204F10C0101F0A6BC38B528496A
:105D20000C1D6288E088904246D001F1440509D2FA
:105D3000111A3629A8BF3621297000F5E8402A78C3
:105D4000696809E0C0F18A0136290CDB3621297027
:105D500000F5E8406968362280B201F085FCE088F1
:105D60002978081825E05118362912DB362100F071
:105D700029F86968E088A0F15402081A00F18A0144
:105D800092B24FF4E84001F06FFCE088C0F18A0065
:105D90000FE0C0F18A01511800F014F86868E1883A
:105DA0006288401A00F18A014FF4E84001F05CFC7F
:105DB0006088E080284632BD2088E080002032BD27
:105DC000EC1000202970C0F18A02696800F5E840F3
:105DD00092B280B201F048BC10B5044610460A46A3
:105DE0000146204601F050FC204610BD10B5044687
:105DF00000E000BF01F0BDFC0028FAD021460020E1
:105E000001F019FD211DBDE81040002001F077BD13
:105E10000EB41EB504464FF4003001F0EAFE4FF414
:105E2000003000F004F929208DF80000052000F072
:105E3000F1F800214FF4805001F043FE002120468C
:105E400001F0D5FD05AA2146002001F077FD0121D2
:105E50004FF4805001F035FE0121204601F0C7FDCE
:105E600017BC5DF810FB03B587B09DF81F000D2827
:105E700017DB9DF81D000D28BCBF9DF81E002028D3
:105E80000FDA9DF81C000828BCBF9DF820001928D7
:105E900007DA9DF821003C28BCBF9DF822003C2871
:105EA00002DB002058E000BF07A9002001F0DFFC62
:105EB0000028F8D002A9002001F021FD9DF80A0079
:105EC0009DF81E10884202BF9DF809009DF81D1024
:105ED000884202BF9DF80B009DF81F108842E3D155
:105EE0009DF820000D28ACBF402000208DF8230035
:105EF00000E000BF08A9002001F05AFC0028F8D0FB
:105F000001A9002001F097FC9DF804009DF82010E5
:105F1000884202BF9DF805009DF821108842E9D112
:105F200000208DF806009DF80500401C8DF8050046
:105F3000C0B23C28A4BF00208DF8050000F014F882
:105F40000198039003A883B000F008F80EBC4FF44A
:105F50008070FFF75DFF012009B000BD0CC86946E5
:105F60000CC10CC80CC170474FF080400590072051
:105F70008DF81800584804907047E0B501214FF0A3
:105F8000805001F006FF012001F0EEFE002001F03C
:105F9000EBFE012001F042FF012001F055FE00E080
:105FA00000BF492001F007FF0028F9D04FF48030EE
:105FB00001F0C0FE7F200190FF20029000200090A1
:105FC00000A801F095FB012001F0CBFE4348416899
:105FD0000068FFF748FF07BDE0B5012001F01EFF94
:105FE00000F00FF8002001F03CFD00F049F800F04F
:105FF0001CF800F00BF8032001F01FFD40F2EB103D
:1060000035E000214FF4804001F05BBD03208DF8A6
:10601000000001208DF8010000208DF80200012011
:106020008DF8030000A801F04EBF4FF480100190DE
:1060300000208DF8080008208DF8090001208DF857
:106040000A0001A801F09EBDE0B5012001F0E6FEC6
:10605000FFF7D7FF002001F004FD00F011F8FFF773
:10606000E4FFFFF7D3FF042001F0E7FC052001F077
:10607000EEFC0121FFF7C6FF012001F0F2FC07BD95
:106080004FF4801001F0B5BD72B61549D1E9002377
:10609000C0E9002362B67047D0B572B6104C002339
:1060A000D4E90067301A67EB01018B4205D828BF9D
:1060B000824202D262B60120D0BD62B60020D0BDBD
:1060C00030B572B6064A0021D2E900452018694170
:1060D000C2E9000162B630BD008080805804002013
:1060E0000014002080B501F043FF01280AD11E20D2
:1060F000FFF7E6FF01F05FFF02F053F8012002F026
:106100000DF91DE001F034FF022807D11E20FFF732
:10611000D7FF01F050FF02F044F811E001F028FF32
:10612000052805D11E20FFF7CBFF01F044FF07E053
:1061300001F01EFF032804BF41F28830FFF7C0FFC3
:106140004FF4804001F0FCFCFFF79AFFBDE80240ED
:106150004FF4801001F04CBD80B54FF4805001F039
:10616000C8FC58B14FF4805001F0EAFC4FF4003005
:1061700001F03FFDBDE8014000F0E5B901BD0000C0
:1061800010B58AB000F0C6F80220009000A90320E4
:106190008DF8040001208DF8060000208DF807001E
:1061A000704C714802F0D6F9204602F033FA012013
:1061B00001F047FD00E000BF212001F0FCFD0028B8
:1061C000F9D04FF40030029002A802F063FA0121E6
:1061D0004FF4007001F0D4FD03A802F04EFA002045
:1061E0000390ADF810000590079003A901208DF8E9
:1061F0002000204602F01FFA05230122012120463B
:1062000002F078FA01224FF44031204602F053FAAE
:106210001021204602F057FA012001F005FE01216D
:10622000204602F03FFA00E000BF4021204602F085
:10623000D8FA0028F8D0082001F02AFE002808BF6C
:1062400000BFF8D00AB010BD10B5464C204602F091
:10625000E1F90021204602F025FABDE810400020B7
:1062600001F0EFBCF8B5FFF78BFF002400252646B0
:106270003C4F384602F078FA00E000BF0221384671
:1062800002F0AFFA0028F8D0B86D80B2A0F21B116E
:10629000CB2902D20EB104196D1C761C0A2EE8DB44
:1062A000EDB22DB1B4FBF5F080B2B0F5E27F01DDC7
:1062B00003200AE0A0F5D771162938BF022004D3C5
:1062C000A0F5CC7015288041C00F28490870BDE8A2
:1062D000F140B9E710B5264C44F62062D4E900013C
:1062E000FFF7DAFE012805D12046FFF7CDFEBDE815
:1062F0001040B7E710BD1D480078704700B583B067
:1063000000F008F800F01EF8ADF804008DF8060063
:10631000012011E00121012001F029BD00B583B069
:10632000FFF7F8FF00F00EF88DF8050001208DF85A
:1063300004008DF8060000208DF807000A4802F0DE
:1063400009F907BD4FF40070009000A900207047C4
:1063500080B54FF40071044802F039F9401E8041C5
:10636000C00F02BD0024014000000240D102002005
:10637000E813002030B540F60F73DFF8F823022849
:1063800010D1D07E9072907ED072507F1073107FAB
:106390005073487890730878D073908A184040F40E
:1063A000835016E001280CD1507F9072107FD0727C
:1063B0004878107308785073908A184040F48250DF
:1063C00007E0487890720878D072908A184040F4BC
:1063D000815090820120918A60F30F31DFF8980399
:1063E000038844889182A34219462AD001F57A7322
:1063F00009D2C4F5E0440D19ADB2B5F57A7F15DACE
:1064000019460D1912E00D1BADB2B5F57A7F0DDA04
:1064100001F57A75B5F5E04F06DB46F61743C91A64
:10642000C4F5E043CD1801E019460D1B45826424F4
:10643000438AC3F5E04363434FF4E04493FBF4F332
:1064400000E0002303740180938A4188C3F303149E
:106450006418A4F5E044012C20DBDBB201EB13113E
:10646000948A012363F30304948223464FF20F04BA
:106470001C401B0649B21B0F5B1A1B0103F0F00303
:106480000902234301F47061194391820021518272
:1064900041881182918AC1F3032109E04FF6F0711E
:1064A0001940918241881182928AC2F303125118D5
:1064B000418030BD10B5B04C618901291CBFA28953
:1064C000002A02D10146022005E0521C8A42014600
:1064D000B4BF01200020FFF74DFF6089A08110BDEF
:1064E000A54800218160016041608173818170470E
:1064F000A148408A7047A048007C70479E48007CB5
:106500005F2801DA00207047603801D10120704710
:1065100002207047984900208881704796480021E2
:106520008173C18881807047934908807047924881
:10653000008870479048408870478F48808870472F
:106540008D48C088704710B58A4C4421204600F021
:10655000FFFE04F1160000F027F904F13A00FFF7FE
:1065600045FC04F1300002F082F983490120C87330
:1065700010BD38B5804D7F4CE87B012840F0CA80C3
:10658000E18AE28B94F83B3061F30802E283002059
:10659000E18BE28AC90502F4FC4252EAD151E1835F
:1065A00040F2FF12218CE8731143218448F2FF125C
:1065B0001140227E607E287241EA42214904490C42
:1065C000218494F84110628B0E3961F34D2262836D
:1065D00094F83F10628B61F34812628394F8401084
:1065E000628B61F3040262833C22618B41F440417F
:1065F000618394F83A1002FB01318904890C41F45B
:106600000041A1838A040EBF4FF4B4618904890C50
:106610006981A18B8904890C012904BF0021A9810A
:10662000002804BF697A012910D0012819D1687A9D
:10663000012807D1E08BC00508D1208CC0F345208C
:1066400068B108E068B9E08BC00504D004F11E0011
:10665000FFF730FF0CE004F12000FFF72BFF0120D3
:1066600007E0E08BC0051CBF04F11E00FFF722FF0E
:106670000020687294F83000002804BF94F83100BC
:10668000002847D100F019F910B1A87B401CA8736D
:10669000A87B08283CDB94F83700A18C60F34D21DF
:1066A000A18494F83500A18C60F34811A18494F87A
:1066B0003600A18C60F30401A184A08C40F440401A
:1066C000A08400F0FAF8A06200F004F9E06294F807
:1066D0002400207094F82500607094F82600A070C3
:1066E00094F82700E07094F82800207194F82900AD
:1066F00060710620A0710120E071E8888A2803DB20
:106700000020E8800620A880E8882081801DE8809D
:1067100000F0E9F8A08A010B012917D10005000D4E
:10672000A0820F23218AC0F30312184204F10A0049
:106730000AD000F030FF0A2002F0D7F8A08A618A60
:10674000C0F3032204F10A0000F025FFE0790128DC
:106750000ED10020E071208900F5E8450A2002F002
:10676000C4F8A279A9B22046BDE8384000F013BFB2
:1067700031BD0000381100208813002063486449AF
:106780000068CA688B6A88628218D21A614B9A4282
:1067900028BF614ACA6010464A6A82423ABF4862CC
:1067A000012000200870704770B5044648F2FF11C0
:1067B0002088574D00F47E40208040F25F1600F0A4
:1067C0004DF8E07001F0D4FB012807D001F0D0FBB8
:1067D000032816D101F0CFFB012812D100F045F8B3
:1067E000A4BF42F4FC4222800022E2702288D2053B
:1067F00018BF28842088C0F3452000282DD0698444
:1068000070BD01F0B5FB022807D001F0B1FB0328F1
:106810001AD101F0B0FB022816D100F026F8A4BF6F
:1068200042F4FC4222802288D20518BF28842088A6
:10683000C0F3452000B16984384800783D28A8BFDE
:106840003C20A070012007E0208800F47E402080DA
:1068500048F2FF1100F002F8E07070BD0020A07057
:1068600020880840208000207047E868298C228812
:10687000411A61F3080222802188CA05D20DB24272
:1068800004DB01F47E4141F4AF71218069686A8CB8
:1068900023888A1A62F34E2323802288C2F3452379
:1068A000402B70471A48808BC0B2704718488068E8
:1068B00080B270471648808A70471548C068704794
:1068C0001348006970471248C08A70471048B0F9F1
:1068D0001A0070470E48406870470D48007801283C
:1068E00018BF0020704780B502F07EFA08480021EA
:1068F000416201844184C1828182C160818381605F
:10690000016101834183416001BD0000C00100209D
:1069100030120020A08601009F8601007113002024
:1069200010B5044602F026FB204610BD2DE9F843C1
:1069300080460F4615004CD02748C019B0F5805F3F
:1069400047D205EB070917F0030418BF3F1B0020CF
:10695000009072B6FEF783FE41F60270FEF7B5FEB8
:1069600044B338680090C4F10400854232BFEEB2EF
:10697000C4F10406F6B200A8324641462018FFF7DB
:10698000CFFF3846FEF77EFE00993846FEF789FEB7
:10699000B0440DE03246414600A8FFF7C1FF38463B
:1069A000FEF770FE00993846FEF77BFE08F10408FA
:1069B0003F1DAD1B4F453CBF0848874206D2386893
:1069C0000090052D2CBF0426EEB2E3E7FEF753FE40
:1069D00062B6BDE8F18300000000F8F7FF0F080879
:1069E00070B505460024002003E0425D0A2A30DA33
:1069F000401CC0B28842F8D3002D18BF002928D00F
:106A00000020425D22B1401CC0B28842F9D306E0AA
:106A100040B210F1010F1CD010F1020F11D1DFF8BC
:106A20005C0601702421DFF8546606F1100000F0C6
:106A30008FFC32782946301D02F09CFA0FF28860F4
:106A400013E0012803DBDFF834160870EAE70028BA
:106A5000E8D1002070BDA11906EB8402097900EB92
:106A60008101641C51F8041C116131788C42F2DB05
:106A7000012070BDDFF804060078704780B5FFF78D
:106A80001CFF00F03DF9BDE80440062152E010B5BE
:106A900084B000A801F0EBFE9DF800000A2100F090
:106AA00018F99DF800000A210A2490FBF1F104FB7B
:106AB0001101122002F0B2FB9DF80200C00703D5BD
:106AC0003A21202002F02CFB9DF801000A2190FBC6
:106AD000F1F12E2002F0A2FB9DF80100214690FB6F
:106AE000F1F104FB11013D2002F098FB9DF9080033
:106AF000012809D19DF9090008B9022102E0012805
:106B000002D1012100F062FA1FBD10B5FFF7CAFEE5
:106B100000240A28A8BF01246428A8BF022400F08A
:106B2000EFF8200114302521C0B202F0F9FABDE8D7
:106B3000104004215E2002F038BC2DE9F04182B003
:106B400000F0E2F8FFF7B2FE00F000F909D100F022
:106B5000CDFADFF82C25DFF82C3500F0DFFA02F053
:106B6000BDFC00F0C3FADFF82025DFF8203500F087
:106B7000D5FA02F0B3FC044600F09EF890FBF1F564
:106B80004FF47A7094FBF0F04FF47A7101FB1041EE
:106B9000642291FBF2F60A2194FBF1F10A2202FB36
:106BA000114842F2107194FBF1F7CFB1394600F071
:106BB00092F842F2107000FB17404FF47A7100F027
:106BC00083F83146212002F029FB2E21302002F0EB
:106BD000A7FA29463F2002F021FB41464E2023E040
:106BE000A8B1084600FB17404FF47A7100F071F825
:106BF0003146122002F012FB2E21212002F090FAE1
:106C00002946302002F00AFB41463F200CE0314685
:106C100000F061F82E21122002F082FA294621208C
:106C200002F0FCFA4146302002F0F8FA002100F0B0
:106C3000CDF9BDE8F38138B500F066F8FFF73AFE0C
:106C400004469DF9000001280DD1204600F04EFABF
:106C5000DFF83C24DFF83C3400F060FA02F03EFC40
:106C60000446082103E020B924204443092100F010
:106C7000ADF94FF47A7094FBF0F5294600F02BF84B
:106C80004FF47A7000FB1540642100F01DF82E21AE
:106C9000212002F045FA00F00FF890FBF1F13020CE
:106CA00002F0BCFA0A2094FBF0F00A2101FB10412B
:106CB0003F2002F0B3FA31BD642094FBF0F0642170
:106CC00001FB10400A21704790FBF1F1122002F005
:106CD000A5BA90FBF1F1032002F0A0BA80B5FFF74E
:106CE000EFFD00F00DF8BDE80440072122E780B574
:106CF000FFF7E9FD00F004F8BDE804400A2119E7B8
:106D00000146032002F08ABA00A8FEF7CDBD80B587
:106D100000A8FEF7DFFDFFF7D9FD00F017F80ED150
:106D200000F0E4F9DFF87023DFF8703300F0F6F9D3
:106D30000022DFF86C3302F0F7FB02F0CFFBFFF725
:106D4000DFFF03215E2002F030FB01BD9DF9001042
:106D50000129704780B5FFF7D7FFFFF7BBFDFFF7AD
:106D6000F5FF05D100F0C2F900F006F802F0B6FB1D
:106D7000FFF7C6FF0B21E5E7CA4ACB4B00F0CEB9BF
:106D8000704780B553211C2002F0CAF94C212B20FA
:106D900002F0C6F945213A2002F0C2F94521492006
:106DA00002F0BEF9BDE804405021582002F0B8B905
:106DB00070477047704770B5FFF79DFABB4D0446AA
:106DC00000F04FF8012804D12846BDE87040FFF7D5
:106DD0005BB9D5E900010022FFF75EF9012806D171
:106DE00000F039F818B9022CB8BFB14821DB00F027
:106DF00032F8012806D100F028F818B9032CB8BFE2
:106E0000AC4816DB00F021F8012840F6B83606D170
:106E100000F016F818B9042CB8BFA74809DB00F039
:106E20000FF801280BD100F01CF840B9042C06DA49
:106E3000A24802F02EFBBDE8704002F013B970BD0D
:106E4000D5E900013246FFF727B9D5E900014FF433
:106E5000FA62FFF721B9D5E900014FF47A72FFF722
:106E60001BB9D5E900014FF47A62FFF715B980B577
:106E7000934801E080B5914802F00BFBBDE801406A
:106E800002F0F0B880B54D21052002F049F9452106
:106E9000152002F045F94D21252002F041F94F213E
:106EA000352002F03DF94C214E2002F039F94F21F6
:106EB0005E2002F035F9BDE8044057216E2002F053
:106EC0002FB980B54D21022002F02AF94521112069
:106ED00002F026F94D21202002F022F94F212F2027
:106EE00002F01EF94621442002F01AF955215320E0
:106EF00002F016F94C21622002F012F9BDE80440BC
:106F00004C21712002F00CB980B5FFF7F4F901288B
:106F100007D1FFF7ACFF02F0A5F84FF47A7001F04B
:106F2000E4FCFFF7EBFA022802D1FFF7CAFF05E005
:106F3000FFF7E4FA012809D1FFF7A4FF02F092F865
:106F4000BDE802404FF47A7001F0CFBC01BD80B5BE
:106F500000A802F06DFC412100F03BF89DF9001003
:106F6000002948BF49421D2002F058F99DF901103F
:106F7000002948BF4942402002F050F99DF9021013
:106F8000002948BF4942632002F048F901BD00B51D
:106F900083B000A802F025FE422100F01AF8BDF9E6
:106FA00002102D2002F03AF90D210CE000B583B05B
:106FB00000A802F016FE432100F00BF801991D20F5
:106FC00002F02CF90C2100F001F807BD5E2002F060
:106FD000ECB9002002F0A4B810B53A4C207884B087
:106FE000E0B90A223C21201D00F0D5FA142001F05E
:106FF0007CFC0A2200A93C2000F036FB002000A9FE
:107000000219415C1279914202D00120207005E002
:10701000401CC0B200210A282170F0DB4421FFF798
:10702000D8FF2078A8B152211B2002F079F84F2117
:107030002A2002F075F84D21392002F071F845211F
:10704000522002F06DF85221612002F069F85221BD
:1070500010E052211B2002F063F84F212A2002F099
:107060005FF84D21392002F05BF84F21612002F0DA
:1070700057F84B21702002F053F81FBD0402002086
:10708000AC1C5A643BDFE33F9A9999999999B93FAF
:107090004260E5D0225B3640CDCCCCCCCCCCFC3FA2
:1070A00000004040736891ED7C3F0A40F0130020DF
:1070B000C04A0008C0440008C0460008C048000894
:1070C000C0420008300400208F6A00087D6A000872
:1070D0003B6B0008DD6C0008EF6C00080B6B0008D0
:1070E0000F6D0008376C0008556D0008010040F175
:1070F0000980F446404200F005F851F00041604735
:10710000010000BF09D0B0FA80F18840C91CC1F568
:107110008461090501EBD02140057047B0B581EAD3
:10712000030C0CF0004C40F2FF7515EA11541DBF22
:1071300015EA1357AC42AF4239E0E41923EA45534C
:1071400043F48013C90241F0004141EA505EC70296
:107150001100A7FB020200284FF00000EEFB012007
:107160004FF00001E3FB072118BF42F00102401875
:1071700000214941E3FB0E01A4F580640F0302D214
:1071800052004041494154F101046CDD470872F15D
:10719000004250F1000051EB0451A1F580115CBF99
:1071A00041EA0C01B0BD4CEA05510020B0BD05EA32
:1071B0001357AC4214BFAF4241E050EA410E1CBF2E
:1071C00052EA430E02E061460020B0BD24423C4436
:1071D0001BD15FEA070EF6D0090302BF014600206B
:1071E000AEF1140EB1FA81F7AEEB070401FA07FE17
:1071F0000C37C7F1200100FA07F7C8404EEA000E2D
:1072000023EA455343F48013A2E733F00043B3FA73
:1072100083F704BFB2FA82FE77440B3FE41BB7F159
:10722000200E2FBF02FA0EF3BB40C7F1200E22FA48
:107230000EFE38BF43EA0E03BA40641C82E750EAF0
:10724000410E14BF52EA430E6FF000014FF40017D5
:1072500017EB430F8ABF194617EB410FB5E74CEA0E
:1072600005510020B0BDD4F10104B4F120070FDABC
:10727000C4F12007520828BF42F0010210FA07F5B6
:1072800001FA07F7E1BF2A43E0403843E1400FE04D
:10729000352C98DCC7F1200452EA400220FA07F2AC
:1072A00018BF42F0010231FA07F0A1400A43002161
:1072B00072F1004250F1000051EB0C01B0BD000032
:1072C0004FEAF17CBCF1E04C2CBFBCF5001F11E093
:1072D0005FEA4C0C34BFBCF17F5F2EE05FEA9C0C90
:1072E0004FEA0C1C4FEA3C0CC10071F100414CEB21
:1072F00050707047C90241EA5051C00218BF41F0B6
:10730000010141F000414FEA6C50C0F10900212811
:1073100010D240EACC7CCCF1200C11FA0CF070F1C8
:107320000040CCF1200C21FA0CF00CF0004C40EBAA
:107330000C0070474FEACC707047490011F5001FF0
:1073400004D84FEACC10FF30C0057047C81770470B
:10735000002202F0C5BF000010B504000221BD48A4
:1073600003F002F8002801D100BFF7E7E4B22100E2
:1073700089B2B84802F0F6FF0121B64802F0F4FFE6
:10738000002801D100BFF7E7B24802F0E9FFC0B220
:1073900010BD10B588B00121032000F0E8FC0121E8
:1073A0004FF4804000F0F5FCAB4C05220D21204647
:1073B00001F01DF905220E21204601F018F90522E1
:1073C0000F21204601F013F94FF48070009000A9BE
:1073D000012000F039F8A14801F0BCF84FF400504A
:1073E000009000A9022000F02FF8204601F0B2F82A
:1073F0004FF4004000F023F84FF4804000F01FF8F5
:107400000020ADF808004FF48270ADF80A000020AB
:107410000390ADF810004FF40070ADF8120000209A
:1074200005900720ADF8180002A98A4C204602F00A
:1074300071FF0121204602F089FF08B010BD0090C5
:1074400000A9204601F086B88DF8040003208DF8CD
:10745000050000208DF8060001208DF80700704718
:10746000002079E780B5FFF794FF01224FF4807187
:107470007A4801F0B7F800BF00BF00BF00BF0AE0C4
:1074800080B50021734802F061FF744801224FF477
:10749000807101F0A7F800BF00BF01BD10B56F4CAF
:1074A000002200F00BF800BF00BF0620FFF754FFDA
:1074B000012200F003F800BF00BF10BD4FF480713F
:1074C000204601F08FB8F8B504000D001600012227
:1074D0004FF48071614801F085F800BF00BF0022C1
:1074E0004FF480715D4801F07DF800BF00BF0320BC
:1074F000FFF732FFA4B2200AC0B2FFF72DFF200031
:10750000C0B2FFF729FF0027BFB2B6B2B74205D21B
:10751000FFF7A6FFBFB278557F1CF5E701224FF4B5
:1075200080714E4801F05EF800BF00BFF1BDF8B5B4
:1075300004000D00160001224FF48071474801F04D
:1075400051F800BF00BF00224FF48071434801F0A2
:1075500049F800BF00BF0220FFF7FEFEADB2280AC7
:10756000C0B2FFF7F9FE2800C0B2FFF7F5FE002712
:10757000BFB2B6B2B74205D2BFB2385DFFF7ECFE7C
:107580007F1CF5E701224FF48071344801F02AF89E
:1075900000BF00BFF1BD2DE9F04704000D0016004B
:1075A000ADB2B5F5004F05DCB6B2002E02D0B6B2D2
:1075B000412E00DB4CE037005FF000085FF000096F
:1075C0005FF0000AADB2A80925490880ADB240209D
:1075D00095FBF0F101FB105122480170FFF742FFCB
:1075E000FFF75CFF1F480078BFB23818412826DB40
:1075F0001C480078D0F1400081461A4800783818BD
:107600004038824616480088401C40214843804646
:107610004A4692B2290089B22000FFF788FF142061
:1076200001F063F9FFF73AFF524692B2414689B240
:107630001FFA89F919EB0400FFF779FF06E0320021
:1076400092B2290089B22000FFF771FFFFF718FFFF
:10765000BDE8F0870038004000040240000002400E
:10766000241400202C14002070B504000D00160016
:10767000FFF7F8FE320092B22900200080B2FFF737
:1076800022FFFFF7FDFE70BD62F30F2262F31F427F
:10769000401810F0030308D0C91A1FD3DB0748BFF6
:1076A00000F8012D28BF20F8022D130030B4144635
:1076B0001546103928BF20E93C00FAD8490728BFF1
:1076C00020E90C0048BF40F8042D890028BF20F8AD
:1076D000022D48BF00F8012D30BC7047C91818BFF3
:1076E00000F8012DCB0728BF00F8012D70470000DE
:1076F00070B50446DFF83054CA20E86100265320F4
:10770000E86100F019F898B1286820F0400028607E
:1077100001262868216808432860A068A860A86836
:10772000616840EA0140A860686820F080006860F5
:10773000FF20E861304670BD81B000200090DFF886
:10774000EC030168490611D44FF0FF310160016874
:10775000009A521C0092009AB2F5005F01D04906CF
:10776000F5D50068800900F0010000E0012001B0BB
:10777000704781B000200090CA21DFF8B00381611A
:1077800053218161016821F0A00101600168009A24
:10779000521C0092009AB2F5004F01D08906F5D52F
:1077A000FF2201688261480900F0010001B07047C2
:1077B0002DE9F0410024DFF86C530028A8680E463C
:1077C0002AD1400658BFF470307800F0C8F98046DE
:1077D000707800F0C4F90746B07800F0C0F93902BB
:1077E00041EA08410843F17840EA0146CA2068624C
:1077F00053206862FFF7A0FFC0B1DFF834033040C8
:107800002860E86820F08000E860A86880060CD452
:10781000FFF7AFFF50B108E0400652BFF470307878
:1078200000F0A8F900F0D5F8DDE70124FF20686238
:107830002046BDE8F08110B50C46DFF8E812DFF80D
:10784000F022096811400A0C02F03F032370A17076
:107850000B0A02F040016370E17038B9207800F043
:1078600089F900F0BEF800F0BFF8A07010BDF8B5BF
:107870000D460024697878BBC80603D501F0EF00F7
:107880000A306870E87800F06AF90646687800F017
:1078900066F90746A87800F062F9390241EA064124
:1078A00008432978DFF88C5240EA4136CA20286222
:1078B00053202862FFF740FFE8B1DFF87C02304038
:1078C0002860A86820F08000A8606868800611D44D
:1078D000FFF74FFF78B10DE0084600F04BF9A878AC
:1078E00000F048F96978E878090241EA0040A9788F
:1078F0000843D6E70124FF2028622046F2BD10B5D8
:107900000C46DFF83012DFF83022096811400A0C0B
:10791000E270A1700A0A02F01F02490B627001F0C6
:107920000701217048B9E07800F024F9E070607830
:1079300000F020F900F058F8A07010BD2DE9F843D0
:10794000DFF8E451002828688946164629D1400608
:107950005CBF0020F070307800F001F9804670784C
:1079600000F0FDF80446B07800F0F9F80746307BE7
:1079700000F0F5F8210241EA0841F278394341EA82
:10798000024141EA0060B168084371680843CA21B6
:10799000E9615321E961B9F5807F0CBF6861A86195
:1079A00013E0400603D5307800F0E4F801E0002051
:1079B000F070307B00F0DEF800F00BF8F17840EA70
:1079C0000140317B40EA0160DDE7FF20E861BDE86E
:1079D000F18371783078090241EA0040B1780843B8
:1079E000704720706078C5E06070A078C2E018B57C
:1079F0000A460021DFF830310091CA24DC615324AB
:107A0000DC611AB119680843186011E01A688243F2
:107A10001A605A68009C641C0094009CB4F5005FD6
:107A200002D012EA102FF4D05A6812EA102F00D0B8
:107A30000121FF20D861084612BDDFF8EC10CA22F0
:107A4000CA615322CA610A68D208D20032E0DFF864
:107A5000EC10CA220A6153220A610860FF20086103
:107A6000704781B000210091CA22DFF8BC10CA61C2
:107A70005322CA610028086804D040F4806008607E
:107A8000012010E020F4806008604868009A521CD1
:107A90000092009AB2F5005F01D04007F5D5486822
:107AA000800800F00100FF22CA6101B07047FF208A
:107AB000D06170470A600A6810430860FF20C861FF
:107AC0007047194ACA23D3615323D361002900F0B8
:107AD0000403116820F0040004D008431060906B88
:107AE000184304E021EA00001060906B9843906313
:107AF000DDE770B50C4A936B14685268850C02EA96
:107B00001012044020FA05F603EAD630002100F0F6
:107B10000400204302D0100418BF0121084670BDA4
:107B20000000000000280040082800400C28004009
:107B30007F7F7F00042800403FFFFF0014280040A3
:107B4000004901E00C2800400A680003000C40F0E6
:107B5000800002F0800262EA0000086070470021A5
:107B600001E0491C0A38C0B20A28FADA40EA0110DA
:107B7000C0B2704701090A2200F00F0002FB0100A9
:107B8000C0B2704730B5016890F90620CB431B495D
:107B90003AB30A4614682340136053680468A34349
:107BA000536090F90430CC18236805682B43236098
:107BB00093680468A3439360D3680468A343D360C5
:107BC00090F905300568102B07D191682943916021
:107BD000D16800680843D06030BDCC1820682843C5
:107BE00004E090F904000C1820681840206030BDB3
:107BF00000E000BF02490860704700000004014037
:107C0000140401407248734A016841F480710160B4
:107C1000816811408160704A01681140016001680B
:107C200021F480210160816821F47D0181600021BF
:107C3000C1607047694908E069490A6822F46042F6
:107C40001FE0684908607047674900220A700870A1
:107C500070470843654910430870704764490860DD
:107C6000704764490A68920840EA820008607047D9
:107C70006048006800F00C0070475E490A6822F016
:107C8000F0021043086070475A490A6822F4E06223
:107C9000F7E758490A6822F4605242EAC0000860D7
:107CA0007047F0B54E49544B4E68544C544A012528
:107CB00016F00C0619D0042E04D0082E1DD00C2E60
:107CC00002D012E0234618E04D684E68C5F38345A4
:107CD000C6F38156AD5C4F68761CFF0354BF04FBAE
:107CE00005F36B43B3FBF6F307E00B685B0B03F0A4
:107CF00007035B1C05FA03F3DB0303604B680468AE
:107D0000C3F303139B181B7B24FA03F545604B68F0
:107D10004468C3F302239B181B7B24FA03F5856098
:107D200049684368C1F3C2218918097B23FA01F22B
:107D3000C260F0BD00F44032B2F5403F244906D1A4
:107D40000A6822F0C04200F0C0431A430A6000F4FF
:107D500040304A6B22F440324A634A6B1043486316
:107D60007047284908607047274908607047274ACC
:107D70000029116814BF084321EA00001060704711
:107D8000234A0029116814BF084321EA000010604B
:107D90007047204A0029116814BF084321EA0000F7
:107DA000106070471C4A0029116814BF084321EA7B
:107DB00000001060704742090549012A0CBF09689C
:107DC000496B00F01F0021FA00F202F00100704739
:107DD000003802400CC0FF88FEFFFEEE0238024071
:107DE0000438024000004742353802400A38024059
:107DF0006000474208380240001BB7000024F4002E
:107E0000C0030020D8064742DC0647421C38024027
:107E100020380240243802401438024020490860CB
:107E20007047214908607047204908607047204921
:107E3000086070471B490A6822F4C052104320F0C2
:107E40000C0008607047174A13689B0840EA8300DB
:107E5000106001291748026822F00402026001D173
:107E600030BF704720BF70470E4A13689B0840EA36
:107E70008300106001290F48026842F0040202608A
:107E80000CBF30BF20BF016821F0040101607047C2
:107E9000094A12680021024218BF012108467047B2
:107EA00020000E420070004010000E4228000E42DA
:107EB00024000E4210ED00E0047000401949084310
:107EC000194908607047F0B5037890F903401A46E5
:107ED0000121ECB1144B1B68447803F4E063C3F553
:107EE000E0631B0AC3F10405AC4085780F2626FA2F
:107EF00003F707EA050323430C4C1B0113550078D5
:107F000000F01F0291400A4A400942F82010F0BDDB
:107F100003F01F0001FA00F00649520941F822005F
:107F2000F0BD00000000FA050CED00E000E400E008
:107F300000E100E080E100E072B61049087800221C
:107F40000A7062B670470D490A7802B90870704726
:107F50000A4900200870704772B604281EBF0849FD
:107F60000A78824202D00A784A70087062B6704776
:107F70000348007870470248407870472D1400206D
:107F8000BD11002080B54FF40051744800F01FFB74
:107F900000B1012002BD30B571494A780D78541CFA
:107FA00004F00F04AC4205D053181872501C00F0B6
:107FB0000F00487030BD10B5694CA07828B1022878
:107FC0000FD007D3032821D010BDFFF7DBFF50BB34
:107FD000012027E0FFF7D6FF18BB0220A070002089
:107FE00006E0FFF7CFFF60B9E078422802D2401CDC
:107FF000E07010BD2079B0B90220FFF7CCFF01205E
:1080000002E00320A0700020207110BDFFF7BAFF2E
:1080100008B9022006E0E07842283CBF0120FFF7C3
:10802000BAFF0020A07010BD10B586B00121042059
:10803000FFF79DFE00208DF808008DF80A004FF430
:10804000005401208DF80B00019400208DF80900E8
:1080500001A9424800F07EFA01210120FFF790FEBD
:108060000D21022002F092F900208DF810000394F7
:108070000C208DF8110001208DF8120003A8FFF7E5
:1080800081FD00F026F88DF8020001208DF8030034
:1080900000A8FFF718FF06B010BDE0B50D210220C3
:1080A00002F074F94FF40050019000208DF80800A0
:1080B0000C208DF8090000208DF80A0001A8FFF7B8
:1080C00061FD00F006F8ADF8020000A8FFF7FBFE26
:1080D00007BD28208DF8000003208DF80100002046
:1080E00070471CB501210420FFF741FE4FF40050FA
:1080F000009000A900208DF804008DF806000120F2
:108100008DF8070000208DF80500144800F022FAD1
:1081100013480021817001704170083000220B4625
:108120000C461EC013BD0E4972B608784A7862B676
:108130009042F9D002465018521C007A02F00F0209
:108140000A70704772B606480178407862B681427C
:1081500001D0012070470020704700000008024055
:108160005813002080B5FFF703FF032805D1FFF760
:10817000E3FE10B90420FFF7E6FE4FF40050FFF7CE
:1081800037FDBDE802404FF40050FFF732BD00005C
:1081900080B50121524800F01AFA401E8041C00FFC
:1081A00002BD10B54F4C207828B102280DD007D35E
:1081B000032810D010BDFFF7EBFFA0B9012011E09C
:1081C000FFF7E6FF68B100200CE0FFF7E1FF0128B0
:1081D00009D1032006E0FFF7DBFF012808BF0020DC
:1081E00000D00220207010BD00B583B000F041F82F
:1081F000012000F06EF83B490020087007BD72B600
:108200003848007862B6022818BF032801D101203F
:1082100070470020704700B585B000F02AF80120B3
:10822000019001A9002002902D4800F093F901214E
:108230000846FFF7A5FD0021084602F0A7F8012037
:10824000039000208DF8100008208DF81100012007
:108250008DF8120003A8FFF795FC00F029F88DF8BF
:10826000020001208DF8030000A8FFF72CFE05B0E6
:1082700000BD01210120FFF77ABDE0B500210020FB
:1082800002F084F80120019000208DF808000820F9
:108290008DF8090000208DF80A0001A8FFF772FC94
:1082A00000F006F8ADF8020000A8FFF70CFE07BDCD
:1082B00006208DF8000004208DF801000020704792
:1082C00000B583B0FFF7D5FF4FF4C05000F001F8C0
:1082D00007BD009000A900200190014800F03AB9C4
:1082E000000002403214002080B5FFF741FE032851
:1082F00005D1FFF721FE10B90120FFF724FE012070
:10830000FFF776FCBDE802400120FFF772BC0000D9
:108310008E48016C41F00101016470478B4A92F86C
:108320004010C90706D5D18918B1022806D003D359
:1083300000E0D08100207047481CFAE708467047EB
:108340008248816C026C21F00401816492088908E2
:10835000890081649200012102644172002204219B
:108360000270027102728272C172704700000000D6
:1083700010B5764C94F84000C00713D5207A052834
:1083800056D8DFE800F0035710464B2D02F09FF857
:1083900002F0E3F80420207200F056F80120207368
:1083A0000A20208210BD606B8047E069804700286A
:1083B00040D00220FFF7B2FF40F6B931884204DB1B
:1083C0004FF0FF30207003202072E06980470228C0
:1083D00003D0E06980470328E4D10520207210BD56
:1083E000E0698047022812DB02F0FEFA00282070C4
:1083F000D8D06FF00501884209D16069804700F04C
:1084000023F804202072022020733220C9E70320C1
:10841000E4E701F0EAFFBDE8104091E70220FFF732
:108420007DFF218A8142BDD200F00EF8207BD5E786
:10843000FFF786FF6069804700F006F8042020728D
:10844000022020731E20ACE7002067E758B5002407
:108450003E4E08E018B100F032FEC6E91444012196
:108460000120FFF7F0FCFFF783FF96F8480000F0CB
:108470000300022869D13648718A0088814207D0FA
:10848000708200F0B8FD08B900F019FEC6E9144486
:10849000FFF758FE707300F0AEFD0128707BD9D154
:1084A00018B1022816D015D316E0D6E91401002918
:1084B00002BF002806F15000FDF7E6FDD6E91401E1
:1084C00041F28832FDF7E8FD012805D100F0DBFD1F
:1084D00000F09CFDC6E91444708842F2107190FBD4
:1084E000F1F142F2107202FB11004FF47A7190FB2D
:1084F000F1F1262000F092FE70884FF47A7190FB23
:10850000F1F14FF47A7202FB1100642190FBF1F15A
:10851000352000F083FE7088642190FBF1F1642225
:1085200002FB11000A2190FBF1F1442000F076FEDD
:1085300070880A2190FBF1F10A2202FB11015320FD
:1085400000F06CFE00F08EFD89E751BD380200207E
:10855000F6000020F0B5002201230C6893401C4077
:108560009C4230D154000325A5400668ED432E40BF
:108570000660066891F90470A7403E43066091F9D1
:108580000460012E18BF022E13D186682E4086602B
:10859000866891F90570A7403E438660868826EA82
:1085A00003038380838891F90660B6B29640334313
:1085B0008380C3682B40C360C36891F9075005FAF4
:1085C00004F42343C360521C102AC5D3F0BD008AB3
:1085D0000022084218BF01221046704701837047ED
:1085E000418370470AB1018370474183704710B5DA
:1085F000CB0800EB830001F007018900036A0F2418
:108600008C40A343036202FA01F1036A1943016239
:1086100010BD000080B5334988420BD101214FF4D1
:108620000070FFF7BFFBBDE8044000214FF400706D
:10863000FFF7B8BB01BD42682B4B1A4091F90430DB
:1086400042EA03220B681A434260284B82681A40B0
:108650000B691A43CB681A438B681A4391F90530AA
:1086600042EA43028260026B097D491E22F0F872E1
:10867000C9B242EA015101637047002101600171F2
:10868000417181604FF04071C160002101610121A1
:108690000175704716490A68006822F44032104399
:1086A000086070470029816812BF41F00101490844
:1086B000490081607047002A426814BF114322EAD2
:1086C000010141607047826822F0F00286E00849AB
:1086D0000028086814BF40F4000020F4000008607F
:1086E0007047000000240140FFFEFFFCFDF7FFC0C3
:1086F0000427014070B500F03CF81F23072A07DA71
:10870000521E02EB8202046C00F028F8016470BD76
:108710000D2A07DAD21F02EB8202C46B00F01EF8AA
:10872000C16370BD132A07DA0D3A02EB8202846B33
:1087300000F014F8816370BD192A07DA133A02EBCE
:108740008202446B00F00AF8416370BD193A02EBF3
:108750008202046B00F002F8016370BD934024EACA
:108760000303914019437047816841F08041816063
:10877000704707241E290BDBA1F11E0505EB4505FB
:10878000C66DAC4026EA0404AB402343C365704782
:1087900014290BDBA1F1140505EB4505C668AC40B7
:1087A00026EA0404AB402343C36070470A290BDB6D
:1087B000A1F10A0505EB45050669AC4026EA04046B
:1087C000AB4023430361704701EB41054669AC4070
:1087D00026EA0404AB4023434361704711438160A0
:1087E000704700680022084218BF012210467047F7
:1087F00003B481B0002001999DF908200091002A5E
:108800009DF8091004BF002901982ED09DF9082079
:108810009DF80530012A05DB5BB2C9184AB23C2A33
:1088200010DB0DE0002A07D5591A4AB2002A09D5F3
:108830003C314FF0FF3005E0C9184AB23C2A01DB59
:108840003C3901209DF904209DF808309A188018C1
:1088500040B21828A8BF183802DA002848BF1830DC
:108860008DF800008DF80110009803B0704710B526
:1088700086B0044602A8FCF7D0FF01A8FCF7B6FFBB
:1088800003A8FDF7B3FA01990398FFF7B1FF009031
:108890009DF8000020709DF801003C28A8BF002032
:1088A00060709DF80200A0700020207260729DF838
:1088B0000800012809D1207220780C28A4BF0122C9
:1088C00062720D28A4BF0C38207006B010BD0000E5
:1088D00000214FF40042114301FB01F3984238BFDD
:1088E00091435208F7D10846704780B24EF6612195
:1088F00088420EDA002189B280B2814209D2002278
:1089000092B2B2F5FA7F02DA00BF521CF8E7491CB6
:10891000F1E770471CB501210120FFF728FA01217A
:108920000220FFF724FA01210420FFF720FA012199
:108930002020FFF71CFA49F6FD7000F09FF84C4C20
:108940002046FFF707FE0022012100F0A6F80022D2
:10895000042100F0A2F80022082100F09EF8002275
:10896000102100F09AF80122202100F096F801224F
:10897000402100F092F80122802100F08EF800F0F2
:1089800089F800224FF4007100F087F801224FF4BB
:10899000806100F082F800224FF4006100F07DF861
:1089A00000224FF4805100F078F800224FF400418B
:1089B00000F073F84FF6FF7000F060F82D4C204681
:1089C000FFF7C8FD0022012100F067F80022022114
:1089D00000F063F80022042100F05FF800224FF459
:1089E000805100F05AF80022082100F056F80022C9
:1089F000102100F052F80022202100F04EF8002251
:108A0000402100F04AF80022802100F046F800F0F2
:108A100041F801224FF4007100F03FF800224FF4BA
:108A2000806100F03AF800224FF4006100F035F860
:108A300000224FF4005100F030F800224FF4804142
:108A400000F02BF800224FF4004100F026F803203C
:108A500000F014F8084C2046FFF77CFD0122114677
:108A600000F01BF80122022100F017F813BD0000EE
:108A70000000024000040240001402400090002068
:108A80008DF8050001208DF804000020ADF80600E7
:108A900000A9704700224FF480712046FFF7A2BD65
:108AA00080B572B602F098F80020FFF7BAF90020FE
:108AB000FFF70DFE0120FFF7BAF90120FFF7B4F927
:108AC0004FF44070FFF7FAF9FCF7E8FFFDF755FAAD
:108AD000FFF707FBFDF704FDFDF79CF8FDF703FF2B
